:020000040800F2
:1000000078040020D1000008E10A0008A50A0008D1
:1000100000000000000000000000000000000000E0
:100020000000000000000000000000002B0B000892
:100030000000000000000000290B00082D0B000844
:10004000E3000008E3000008E3000008E300000804
:10005000E3000008E3000008E3000008E3000008F4
:10006000E3000008E3000008E3000008E3000008E4
:10007000E3000008E3000008E3000008E3000008D4
:10008000E3000008E300000800000000E3000008AF
:10009000E3000008E3000008E3000008E3000008B4
:1000A000E3000008E3000008E3000008E3000008A4
:1000B000E300000800000000E30000080348854654
:1000C00000F02AF800480047F10E000878040020EC
:1000D0000448804704480047FEE7FEE7FEE7FEE7E6
:1000E000FEE7FEE7B10B0008BD00000830B50B4687
:1000F000014600202022012409E00D46D5409D4202
:1001000005D31D469540491B254695404019154687
:10011000521E002DF1DC30BD064C0125064E05E0D7
:10012000E36807CC2B430C3C98471034B442F7D318
:10013000FFF7C8FF480F0008680F0008F8B5002354
:100140008DE001249C40A44622407DD04C68022CC6
:1001500001D0122C0CD1DC08A40027183C6A5D07E2
:10016000ED0E0F26AE40B4430E69AE4026433E620C
:1001700005685E000324B4400F79A543BF07BF0F95
:10018000B7402F4307604D68012D05D0022D03D0E5
:10019000112D01D0122D0ED18568CF68A543B7402F
:1001A0002F43876047686546AF430D79ED06ED0F35
:1001B0009D403D434560C568A5438C68B4402C43D1
:1001C000C4604C68E40049D5284CA5690126354334
:1001D000A561A4699D0834400094254CAD002F19F9
:1001E000BC689D072E0F0F25B540AC430925ED06D1
:1001F000A84201D100250FE01E4DA84201D10125E2
:100200000AE01D4DA84201D1022505E01B4DA84280
:1002100001D1032500E00525B5402543BD60184CFC
:1002200025684E689543F60300D51543256065683B
:100230004E689543B60300D515436560A5684E68C2
:100240009543F60202D500E008E01543A560E56895
:100250004E689543B60200D51543E5605B1C0A68FD
:100260001446DC4000D06CE7F8BD000000100240EE
:10027000000001400004004800080048000C00484D
:1002800000040140014800687047000000000020A1
:1002900002480168491C016070470000000000200E
:1002A00010B506480168102211430160002000F0DB
:1002B00007F800F017F8002010BD000000200240F1
:1002C00010B5044600F046F97D21C900FFF70EFF86
:1002D00000F070FB00222146501E00F025F800209F
:1002E00010BD000008B50F488169012211438161EA
:1002F000816911400091C26901040A43C261C06969
:100300000022084000901146501F00F00DF8002216
:100310001146901E00F008F800221146501E00F011
:1003200003F808BD0010024010B500F0DBFB10BD63
:10033000F8B505460068394CC00352D5E06900267F
:10034000C00007D4E16920040143E161E169014093
:100350000126009132480168C90510D40168821550
:1003600011430160FFF78EFF074604E0FFF78AFFA5
:10037000C01B642824D82A480068C005F6D5206A26
:1003800003273F02384020D06968394081421CD0A1
:10039000206A226AB843012109040A432262226AC0
:1003A0008A4322622062C0070FD0FFF76BFF0090E4
:1003B00008E0FFF767FF0099411A1A48814201D906
:1003C0000320F8BD206A8007F3D5206A6968B84326
:1003D00008432062002E04D0E16901200007814318
:1003E000E1612878C00705D0206BA96880088000EB
:1003F000084320632878800605D5206B10218843A8
:10040000E968084320632888400505D5206B402112
:1004100088432969084320630020F8BD001002408A
:100420000070004088130000F8B5054644480E46A9
:100430000068C007C00FB0420AD2414801684908AD
:100440004900314301600068C007C00FB0425CD171
:1004500028783C4C800705D56068F0218843A9685E
:10046000084360602878C0073FD06868012813D02F
:100470002168022813D08907002946DA61688908B3
:10048000890001436160FFF7FDFE696807460129A5
:100490000DD0022917D024E021688903ECE78901F7
:1004A000EAE7FFF7EFFEC11B2748814217D86068D3
:1004B0000007800F0128F4D117E0FFF7E3FEC11B0E
:1004C000214881420BD860680007800F0228F4D1D0
:1004D0000BE0FFF7D7FEC11B1B48814201D9032067
:1004E000F8BD60680007800FF3D115480168C9079F
:1004F000C90FB1420BD90168490849003143016075
:100500000068C007C00FB04201D00120F8BD2878B4
:10051000400706D56068072109028843E968084357
:10052000606000F02DF86168084A0906090F515C07
:10053000C840074908600020FFF7C2FE0020F8BD50
:10054000002002400010024088130000300F000815
:1005500004000020014800687047000004000020EB
:100560000448054900684968044A4905490F515C37
:10057000C84070470400002000100240400F0008EF
:1005800010B512A30FCB88B06C460FC413A30FCBCA
:100590000FC416494A680C20134603401448042B24
:1005A0000FD0082B0DD193021B0F6C46E45CC96A77
:1005B00004AB0907090F595CD20304D5FFF796FD78
:1005C000604308B010BD0B486043FAE7020304051E
:1005D000060708090A0B0C0D0E0F10100102030488
:1005E00005060708090A0B0C0D0E0F10001002403B
:1005F00000127A0000093D0030B587B0022001905A
:100600000320039000200D46FF2101310C4C029085
:1006100000910490616901204004014361616169B6
:100620000140059109206946C006FFF787FD606813
:100630000F21090688432843606007B030BD0000E1
:1006400000100240FEB504460078D04DC00747D0E8
:1006500068680007800F012807D068680007800FCE
:10066000022809D16868C00306D52868800337D5F9
:10067000606800287ED033E0012062680004012A0F
:1006800011D08100002A01D0052A10D02A688243A7
:100690002A602868884328606068002814D0FFF723
:1006A000F1FD06460CE0296801432960F4E72A6859
:1006B0000A432A60F7E7FFF7E5FD801B64286FD83F
:1006C00028688003F7D50BE0FFF7DCFD064604E061
:1006D000FFF7D8FD801B6428F1D828688003F7D481
:1006E00020780126800700283BDA68680007800F21
:1006F00007D068680007800F022809D16868C00326
:1007000006D42868800715D5E068012832D111E0A9
:10071000E0680028286815D030432860FFF7B2FD54
:10072000074604E0FFF7AEFDC01B0228C7D82868C3
:100730008007F7D52868F82188432169C900084354
:1007400028600EE0400840002860FFF79BFD074648
:1007500004E0FFF797FDC01B0228B0D82868800787
:10076000F7D42078000724D5E0690028686A10D003
:10077000304300E008E16862FFF784FD074604E0CB
:10078000FFF780FDC01B022899D8686A8007F7D55B
:100790000FE0400840006862FFF774FD074605E07F
:1007A0009DE0FFF76FFDC01B022888D8686A8007AC
:1007B000F7D4207804274007002860DA0020019051
:1007C000E869C00008D4E969B8060143E961E9694C
:1007D00001400120009101906D480168C90511D4C4
:1007E0000168821511430160FFF74CFD009005E0A0
:1007F000FFF748FD0099401A642870D864480068E3
:10080000C005F5D5A06801280AD0002801D0052828
:1008100010D0286A400840002862286AB84301E0E6
:10082000286A30432862A068002812D0FFF72AFD0A
:1008300000900AE0286A38432862F1E7FFF722FDBA
:100840000099411A5348814249D8286A8007F5D552
:100850000DE0FFF717FD009006E0FFF713FD00998C
:10086000411A4C4881423AD8286A8007F5D4019849
:10087000002804D0E969012000078143E96120785C
:10088000C00635D5606901280CD0401D686B23D0A7
:1008900038436863686B400840006863FFF7F2FC08
:1008A000064622E0686B38436863686B30436863D0
:1008B000FFF7E8FC064604E0FFF7E4FC801B022893
:1008C0005BD8686B8007F7D5686BF8218843A1690E
:1008D000C900084368630BE0B8436863F4E74CE081
:1008E000FFF7D0FC801B022847D8686B8007F7D43D
:1008F000206A002846D069680907890F022943D079
:10090000012636060228286805D0B0432860FFF784
:10091000B9FC044633E0B0432860FFF7B3FC074658
:1009200004E0FFF7AFFCC01B022826D8286880012E
:10093000F7D4E86AE16A000900010843E862616AE5
:10094000A06A084369683D22120491430843686025
:10095000286830432860FFF795FC044604E0FFF761
:1009600091FC001B022808D828688001F7D509E00F
:10097000FFF788FC001B022801D90320FEBD286870
:100980008001F5D40020FEBD0120FEBD0010024014
:1009900000700040881300000422044904280869FC
:1009A00002D09043086170471043FBE700E000E08D
:1009B00070470000094910B5401E884201D9012046
:1009C00010BD074C60610321081F00F08BF8002068
:1009D000A06107202061002010BD0000FFFFFF0084
:1009E00000E000E010B5FFF7E3FF10BD70B50400B4
:1009F00005D025466035687A002802D006E001203F
:100A000070BD00202872204600F026F8242068726D
:100A100020680168490849000160204600F090F90B
:100A20000128EDD0606A002802D0204600F0EEF8E0
:100A3000206841680922D2029143416020688168A0
:100A40002A229143816020680168012211430160DC
:100A5000204600F041F970BD00B500680F4987B02D
:100A6000884218D10E488269012189030A438261B4
:100A70008069084005900320400200900220019008
:100A80000020029003200390012004900920694671
:100A9000C006FFF753FB07B000BD0000003801405F
:100AA00000100240FEE7000010B50C480A49016042
:100AB0004B214902416000218160C1600161816177
:100AC000C1610C22016242614162FFF78FFF002881
:100AD00000D0FEE710BD00000038014008000020F3
:100AE000704700008307FF22DB0E9A408907090E3A
:100AF000994000280BDA0007000F083883080848DF
:100B00009B001818C36993430B43C3617047830864
:100B100004489B001B1818689043084318607047EE
:100B200000ED00E000E400E07047704710B5FFF70B
:100B3000AFFBFFF757FF10BD30B595B00220009016
:100B40000125102003950024049008946846FFF7BF
:100B500079FD002800D0FEE707200C900D940E943C
:100B600000210F940CA8FFF75FFC002800D0FEE7DF
:100B7000109510A81295FFF7DBFB002800D0FEE7C8
:100B80000022052109061046FFF736FDFFF7E2FCBB
:100B90007D21C900FFF7AAFAFFF70CFF0420FFF739
:100BA000FBFE00221146501EFFF7BEFB15B030BD04
:100BB000134801680122114301604168114A114044
:100BC00041600168104A11400160016801229204ED
:100BD0009143016041683F22120491434160C16A20
:100BE00009090901C162016BFF225432914301637B
:100BF000416B490849004163002181607047000052
:100C0000001002400CB8FFF8FFFFF6FE10B5818C13
:100C1000C90707D001684A6801235B049A43836AC5
:100C20001A434A60818C890707D501684A68012305
:100C30001B049A43C36A1A434A60818C490707D54B
:100C400001684A6801239B049A43036B1A434A6074
:100C5000818C090707D501684A680123DB039A43A1
:100C6000436B1A434A60818CC90607D502689168B4
:100C700001231B039943836B19439160818C89067F
:100C800007D501688A6801235B039A43C36B1A4343
:100C90008A60818C490612D503685A6801210905CA
:100CA000046C8A4322435A60026C8A4207D102686C
:100CB000516803235B059943436C19435160818C50
:100CC000090607D501684A680123DB04806C9A4352
:100CD00002434A6010BD0000F8B500260446C6660F
:100CE000FFF7D0FA05461449206888421DD10068F4
:100CF000124F000709D501212B4600224905204645
:100D0000009700F0B5F800280DD120680068400772
:100D10000BD501212B46002289052046009700F0C3
:100D2000A7F8002801D00320F8BD202060346072AD
:100D3000A07226720020F8BD00380140FFFFFF01BD
:100D4000F8B504462369A268E5691A43636910206F
:100D50002B43002125681A432B680E463E4F3B402B
:100D600013432B6023685A6803252D03AA43E568C3
:100D70002A435A60236AA26925681A43AB680B2785
:100D80003F02BB431343AB60344A2568954210D100
:100D9000334A126B9207920F0ED0012A05D0022A15
:100DA00005D0032A09D1022007E0042005E008202D
:100DB00003E02C4A954200D100200122E369D203CE
:100DC000934224D100280CD002280DD0042813D03F
:100DD000082817D001260A0912010807400F1043FE
:100DE0002FE0FFF7BDFB09E061681F4A4808801843
:100DF000FFF77CF981B2EEE7FFF7C2FB61684000C4
:100E00004A08F4E76168012248081204EFE7002865
:100E100008D0022809D004280BD0082814D00126B5
:100E20003046F8BDFFF79CFB05E061680F4A4808B3
:100E30000CE0FFF7A5FB61684A088018FFF756F938
:100E400080B22168C860EBE7616848088018FFF746
:100E50004DF980B2E860E3E7F369FFFF0038014035
:100E600000100240004400400024F40000127A0008
:100E7000FFB581B017460E4604460A9D1DE0681C6A
:100E80001BD0002D05D0FFF7FDF90499401AA842A8
:100E900013D920680168FF22A132914301602068C4
:100EA0008168490849008160202060346072A07226
:100EB00000202072032005B0F0BD2068C1693046D3
:100EC000884304D00020B842D9D00020F3E70120A5
:100ED000F9E702E008C8121F08C1002AFAD17047DA
:100EE0007047002001E001C1121F002AFBD17047AA
:100EF00086B0FFF7D5F9FFF71FFE0C4842690121C4
:100F000049040A4342614069084005904812009034
:100F1000022001900020029003900490092069466D
:100F2000C006FFF70BF9FFF7BFFDFEE70010024018
:100F30000000000000000000010203040607080989
:100F40000000000001020304680F000800000020F8
:100F500008000000D20E0008700F000808000020F2
:100F600070040000E20E00080000000000127A0089
:04000005080000BD32
:00000001FF
